{
  "transactions": [
    {
      "hash": "0xe91ae7b4f7ea164acefb52729f73e107d3c48a93b5f49f4be152fddca5fafa8f",
      "transactionType": "CALL",
      "contractName": null,
      "contractAddress": "0xfb3e0c6f74eb1a21cc1da29aec80d2dfe6c9a317",
      "function": "initialize((address,address,uint24,int24,address),uint160)",
      "arguments": [
        "(0x0000000000000000000000000000000000000000, 0x75faf114eafb1BDbe2F0316DF893fd58CE46AA4d, 3000, 60, 0x444F320aA27e73e1E293c14B22EfBDCbce0e0088)",
        "125270724187523965593206617637"
      ],
      "transaction": {
        "from": "0xfdc61d52721c5eba3e2fc39190fd9a603256e5a2",
        "to": "0xfb3e0c6f74eb1a21cc1da29aec80d2dfe6c9a317",
        "gas": "0x10b93",
        "value": "0x0",
        "input": "0x6276cbbe000000000000000000000000000000000000000000000000000000000000000000000000000000000000000075faf114eafb1bdbe2f0316df893fd58ce46aa4d0000000000000000000000000000000000000000000000000000000000000bb8000000000000000000000000000000000000000000000000000000000000003c000000000000000000000000444f320aa27e73e1e293c14b22efbdcbce0e0088000000000000000000000000000000000000000194c583ada5b529204a277625",
        "nonce": "0x10",
        "chainId": "0x66eee"
      },
      "additionalContracts": [],
      "isFixedGasLimit": false
    },
    {
      "hash": "0xac87f1cdcacada907e8d0d18d03c3323061bb5ec576924626ea3885ed1657b20",
      "transactionType": "CALL",
      "contractName": null,
      "contractAddress": "0xfb3e0c6f74eb1a21cc1da29aec80d2dfe6c9a317",
      "function": "initialize((address,address,uint24,int24,address),uint160)",
      "arguments": [
        "(0x0000000000000000000000000000000000000000, 0x75faf114eafb1BDbe2F0316DF893fd58CE46AA4d, 500, 10, 0x444F320aA27e73e1E293c14B22EfBDCbce0e0088)",
        "127775718394449857270889842187"
      ],
      "transaction": {
        "from": "0xfdc61d52721c5eba3e2fc39190fd9a603256e5a2",
        "to": "0xfb3e0c6f74eb1a21cc1da29aec80d2dfe6c9a317",
        "gas": "0x10968",
        "value": "0x0",
        "input": "0x6276cbbe000000000000000000000000000000000000000000000000000000000000000000000000000000000000000075faf114eafb1bdbe2f0316df893fd58ce46aa4d00000000000000000000000000000000000000000000000000000000000001f4000000000000000000000000000000000000000000000000000000000000000a000000000000000000000000444f320aa27e73e1e293c14b22efbdcbce0e008800000000000000000000000000000000000000019cdd98d5b53ac9dd72ac060b",
        "nonce": "0x11",
        "chainId": "0x66eee"
      },
      "additionalContracts": [],
      "isFixedGasLimit": false
    },
    {
      "hash": "0x0a6b1a39a15fd70d2c5ea75b003b02fb5be30f1b6ae71a1359aad7346ded2b2d",
      "transactionType": "CALL",
      "contractName": null,
      "contractAddress": "0x9a8ca723f5dccb7926d00b71dec55c2fea1f50f7",
      "function": "modifyLiquidity((address,address,uint24,int24,address),(int24,int24,int256,bytes32),bytes)",
      "arguments": [
        "(0x0000000000000000000000000000000000000000, 0x75faf114eafb1BDbe2F0316DF893fd58CE46AA4d, 3000, 60, 0x444F320aA27e73e1E293c14B22EfBDCbce0e0088)",
        "(-600, 600, 1000000, 0x0000000000000000000000000000000000000000000000000000000000000000)",
        "0x"
      ],
      "transaction": {
        "from": "0xfdc61d52721c5eba3e2fc39190fd9a603256e5a2",
        "to": "0x9a8ca723f5dccb7926d00b71dec55c2fea1f50f7",
        "gas": "0x54a3e",
        "value": "0x16bcc41e90000",
        "input": "0x5a6bcfda000000000000000000000000000000000000000000000000000000000000000000000000000000000000000075faf114eafb1bdbe2f0316df893fd58ce46aa4d0000000000000000000000000000000000000000000000000000000000000bb8000000000000000000000000000000000000000000000000000000000000003c000000000000000000000000444f320aa27e73e1e293c14b22efbdcbce0e0088fffffffffffffffffffffffffffffffffffffffffffffffffffffffffffffda8000000000000000000000000000000000000000000000000000000000000025800000000000000000000000000000000000000000000000000000000000f4240000000000000000000000000000000000000000000000000000000000000000000000000000000000000000000000000000000000000000000000000000001400000000000000000000000000000000000000000000000000000000000000000",
        "nonce": "0x12",
        "chainId": "0x66eee"
      },
      "additionalContracts": [],
      "isFixedGasLimit": false
    },
    {
      "hash": "0x04dd41192cbce2f2044e98faadacf225e3b21cb3626e111fd4a1afdaf3726121",
      "transactionType": "CALL",
      "contractName": null,
      "contractAddress": "0x9a8ca723f5dccb7926d00b71dec55c2fea1f50f7",
      "function": "modifyLiquidity((address,address,uint24,int24,address),(int24,int24,int256,bytes32),bytes)",
      "arguments": [
        "(0x0000000000000000000000000000000000000000, 0x75faf114eafb1BDbe2F0316DF893fd58CE46AA4d, 500, 10, 0x444F320aA27e73e1E293c14B22EfBDCbce0e0088)",
        "(-600, 600, 1000000, 0x0000000000000000000000000000000000000000000000000000000000000000)",
        "0x"
      ],
      "transaction": {
        "from": "0xfdc61d52721c5eba3e2fc39190fd9a603256e5a2",
        "to": "0x9a8ca723f5dccb7926d00b71dec55c2fea1f50f7",
        "gas": "0x54a3e",
        "value": "0x15dce3f6009d8",
        "input": "0x5a6bcfda000000000000000000000000000000000000000000000000000000000000000000000000000000000000000075faf114eafb1bdbe2f0316df893fd58ce46aa4d00000000000000000000000000000000000000000000000000000000000001f4000000000000000000000000000000000000000000000000000000000000000a000000000000000000000000444f320aa27e73e1e293c14b22efbdcbce0e0088fffffffffffffffffffffffffffffffffffffffffffffffffffffffffffffda8000000000000000000000000000000000000000000000000000000000000025800000000000000000000000000000000000000000000000000000000000f4240000000000000000000000000000000000000000000000000000000000000000000000000000000000000000000000000000000000000000000000000000001400000000000000000000000000000000000000000000000000000000000000000",
        "nonce": "0x13",
        "chainId": "0x66eee"
      },
      "additionalContracts": [],
      "isFixedGasLimit": false
    }
  ],
  "receipts": [
    {
      "status": "0x1",
      "cumulativeGasUsed": "0xcfcc7",
      "logs": [
        {
          "address": "0xfb3e0c6f74eb1a21cc1da29aec80d2dfe6c9a317",
          "topics": [
            "0xdd466e674ea557f56295e2d0218a125ea4b4f0f6f3307b95f85e6110838d6438",
            "0x5e6967b5ca922ff1aa7f25521cfd03d9a59c17536caa09ba77ed0586c238d23f",
            "0x0000000000000000000000000000000000000000000000000000000000000000",
            "0x00000000000000000000000075faf114eafb1bdbe2f0316df893fd58ce46aa4d"
          ],
          "data": "0x0000000000000000000000000000000000000000000000000000000000000bb8000000000000000000000000000000000000000000000000000000000000003c000000000000000000000000444f320aa27e73e1e293c14b22efbdcbce0e0088000000000000000000000000000000000000000194c583ada5b529204a27762500000000000000000000000000000000000000000000000000000000000023cb",
          "blockHash": "0x16eb362da1689b6bc4a3fd883e05c7a10e16271f5ae47172724b187ebbe0418a",
          "blockNumber": "0x977e30d",
          "transactionHash": "0xe91ae7b4f7ea164acefb52729f73e107d3c48a93b5f49f4be152fddca5fafa8f",
          "transactionIndex": "0x13",
          "logIndex": "0x1",
          "removed": false
        }
      ],
      "logsBloom": "0x00000000000000000000000000000000000000000000000000000000000000000001000000000000000000000000000000008000000000000000000000000040000000000000000000000000000000000000000000000000000000000000000000000000020400000000000000000800020000000000002000000000000000000000000000000008000000000000000000000001000000000000000000200000000000000000000000000000000000000000000000000000000000000000000100000000000000000000000000000000000000000040000000000000000020000000000000000000000000000000000000000000000000000000000000000004",
      "type": "0x2",
      "transactionHash": "0xe91ae7b4f7ea164acefb52729f73e107d3c48a93b5f49f4be152fddca5fafa8f",
      "transactionIndex": "0x13",
      "blockHash": "0x16eb362da1689b6bc4a3fd883e05c7a10e16271f5ae47172724b187ebbe0418a",
      "blockNumber": "0x977e30d",
      "gasUsed": "0xcabf",
      "effectiveGasPrice": "0x5f5e100",
      "from": "0xfdc61d52721c5eba3e2fc39190fd9a603256e5a2",
      "to": "0xfb3e0c6f74eb1a21cc1da29aec80d2dfe6c9a317",
      "contractAddress": null,
      "gasUsedForL1": "0x0",
      "l1BlockNumber": "0x80eefe",
      "timeboosted": false
    },
    {
      "status": "0x1",
      "cumulativeGasUsed": "0x588ba",
      "logs": [
        {
          "address": "0xfb3e0c6f74eb1a21cc1da29aec80d2dfe6c9a317",
          "topics": [
            "0xdd466e674ea557f56295e2d0218a125ea4b4f0f6f3307b95f85e6110838d6438",
            "0x10fe1bb5300768c6f5986ee70c9ee834ea64ea704f92b0fd2cda0bcbe829ec90",
            "0x0000000000000000000000000000000000000000000000000000000000000000",
            "0x00000000000000000000000075faf114eafb1bdbe2f0316df893fd58ce46aa4d"
          ],
          "data": "0x00000000000000000000000000000000000000000000000000000000000001f4000000000000000000000000000000000000000000000000000000000000000a000000000000000000000000444f320aa27e73e1e293c14b22efbdcbce0e008800000000000000000000000000000000000000019cdd98d5b53ac9dd72ac060b0000000000000000000000000000000000000000000000000000000000002557",
          "blockHash": "0x5a51b15bdb763a6553bf27008d9e72bf5a0a1bfddb5be5a4026949f4c110c365",
          "blockNumber": "0x977e326",
          "transactionHash": "0xac87f1cdcacada907e8d0d18d03c3323061bb5ec576924626ea3885ed1657b20",
          "transactionIndex": "0x8",
          "logIndex": "0x0",
          "removed": false
        }
      ],
      "logsBloom": "0x00000000000000000000002000000000000000000000000000000000000000000000000000000000002000000000000000008000000000000000000000000040000000000000000000000000000000000000000000000000000000000000000000000000020400000000000000000800020000000000002000000000000000000000000000000008000000000000000000000001000000000000000000200000000000000000000000000000000000000000000000000000000000000000000000000000000000000000000000000000000000000000000000000000000020000000000000000000000000000000000000000000010000000000000000000004",
      "type": "0x2",
      "transactionHash": "0xac87f1cdcacada907e8d0d18d03c3323061bb5ec576924626ea3885ed1657b20",
      "transactionIndex": "0x8",
      "blockHash": "0x5a51b15bdb763a6553bf27008d9e72bf5a0a1bfddb5be5a4026949f4c110c365",
      "blockNumber": "0x977e326",
      "gasUsed": "0xca9f",
      "effectiveGasPrice": "0x5f5e100",
      "from": "0xfdc61d52721c5eba3e2fc39190fd9a603256e5a2",
      "to": "0xfb3e0c6f74eb1a21cc1da29aec80d2dfe6c9a317",
      "contractAddress": null,
      "gasUsedForL1": "0x0",
      "l1BlockNumber": "0x80ef00",
      "timeboosted": false
    },
    {
      "status": "0x1",
      "cumulativeGasUsed": "0x18dbe7",
      "logs": [
        {
          "address": "0xfb3e0c6f74eb1a21cc1da29aec80d2dfe6c9a317",
          "topics": [
            "0xf208f4912782fd25c7f114ca3723a2d5dd6f3bcc3ac8db5af63baa85f711d5ec",
            "0x5e6967b5ca922ff1aa7f25521cfd03d9a59c17536caa09ba77ed0586c238d23f",
            "0x0000000000000000000000009a8ca723f5dccb7926d00b71dec55c2fea1f50f7"
          ],
          "data": "0xfffffffffffffffffffffffffffffffffffffffffffffffffffffffffffffda8000000000000000000000000000000000000000000000000000000000000025800000000000000000000000000000000000000000000000000000000000f42400000000000000000000000000000000000000000000000000000000000000000",
          "blockHash": "0xa8cfab16b09cf3231a9f16e38f0f0177125d61314fe2c4848a4f7bc3a117dbbe",
          "blockNumber": "0x977e345",
          "transactionHash": "0x0a6b1a39a15fd70d2c5ea75b003b02fb5be30f1b6ae71a1359aad7346ded2b2d",
          "transactionIndex": "0x10",
          "logIndex": "0x3",
          "removed": false
        },
        {
          "address": "0x75faf114eafb1bdbe2f0316df893fd58ce46aa4d",
          "topics": [
            "0xddf252ad1be2c89b69c2b068fc378daa952ba7f163c4a11628f55a4df523b3ef",
            "0x000000000000000000000000fdc61d52721c5eba3e2fc39190fd9a603256e5a2",
            "0x000000000000000000000000fb3e0c6f74eb1a21cc1da29aec80d2dfe6c9a317"
          ],
          "data": "0x000000000000000000000000000000000000000000000000000000000000ea66",
          "blockHash": "0xa8cfab16b09cf3231a9f16e38f0f0177125d61314fe2c4848a4f7bc3a117dbbe",
          "blockNumber": "0x977e345",
          "transactionHash": "0x0a6b1a39a15fd70d2c5ea75b003b02fb5be30f1b6ae71a1359aad7346ded2b2d",
          "transactionIndex": "0x10",
          "logIndex": "0x4",
          "removed": false
        }
      ],
      "logsBloom": "0x0000004040000000000000000000040800000000002000000000000000000000000100000000000000000000000000000000000000000000000000000000004080000000000000000000000800000000000000000000000000000000000000000000000000040000000000000000000000000000000000000000001000000000001000000100000000000000000000000000000000000000000000000000000000000400000000000000000800000000000000000000000000000000000000010000000200000000000000000000000000000000004000000000000000000000000000000000000000000000010000000400000000000000010000000000000c",
      "type": "0x2",
      "transactionHash": "0x0a6b1a39a15fd70d2c5ea75b003b02fb5be30f1b6ae71a1359aad7346ded2b2d",
      "transactionIndex": "0x10",
      "blockHash": "0xa8cfab16b09cf3231a9f16e38f0f0177125d61314fe2c4848a4f7bc3a117dbbe",
      "blockNumber": "0x977e345",
      "gasUsed": "0x39dfb",
      "effectiveGasPrice": "0x5f5e100",
      "from": "0xfdc61d52721c5eba3e2fc39190fd9a603256e5a2",
      "to": "0x9a8ca723f5dccb7926d00b71dec55c2fea1f50f7",
      "contractAddress": null,
      "gasUsedForL1": "0x0",
      "l1BlockNumber": "0x80ef00",
      "timeboosted": false
    },
    {
      "status": "0x1",
      "cumulativeGasUsed": "0x165580",
      "logs": [
        {
          "address": "0xfb3e0c6f74eb1a21cc1da29aec80d2dfe6c9a317",
          "topics": [
            "0xf208f4912782fd25c7f114ca3723a2d5dd6f3bcc3ac8db5af63baa85f711d5ec",
            "0x10fe1bb5300768c6f5986ee70c9ee834ea64ea704f92b0fd2cda0bcbe829ec90",
            "0x0000000000000000000000009a8ca723f5dccb7926d00b71dec55c2fea1f50f7"
          ],
          "data": "0xfffffffffffffffffffffffffffffffffffffffffffffffffffffffffffffda8000000000000000000000000000000000000000000000000000000000000025800000000000000000000000000000000000000000000000000000000000f42400000000000000000000000000000000000000000000000000000000000000000",
          "blockHash": "0xd775d8011d0f2ed0dfa203ca31f8f4b3a3c64d6d3973efa870220fe00f0d7b1e",
          "blockNumber": "0x977e364",
          "transactionHash": "0x04dd41192cbce2f2044e98faadacf225e3b21cb3626e111fd4a1afdaf3726121",
          "transactionIndex": "0x1b",
          "logIndex": "0x8",
          "removed": false
        },
        {
          "address": "0x75faf114eafb1bdbe2f0316df893fd58ce46aa4d",
          "topics": [
            "0xddf252ad1be2c89b69c2b068fc378daa952ba7f163c4a11628f55a4df523b3ef",
            "0x000000000000000000000000fdc61d52721c5eba3e2fc39190fd9a603256e5a2",
            "0x000000000000000000000000fb3e0c6f74eb1a21cc1da29aec80d2dfe6c9a317"
          ],
          "data": "0x000000000000000000000000000000000000000000000000000000000000ea66",
          "blockHash": "0xd775d8011d0f2ed0dfa203ca31f8f4b3a3c64d6d3973efa870220fe00f0d7b1e",
          "blockNumber": "0x977e364",
          "transactionHash": "0x04dd41192cbce2f2044e98faadacf225e3b21cb3626e111fd4a1afdaf3726121",
          "transactionIndex": "0x1b",
          "logIndex": "0x9",
          "removed": false
        }
      ],
      "logsBloom": "0x0000004040000000000000200000040800000000002000000000000000000000000000000000000000200000000000000000000000000000000000000000004080000000000000000000000800000000000000000000000000000000000000000000000000040000000000000000000000000000000000000000001000000000001000000100000000000000000000000000000000000000000000000000000000000400000000000000000800000000000000000000000000000000000000000000000200000000000000000000000000000000000000000000000000000000000000000000000000000000010000000400000001000000010000000000000c",
      "type": "0x2",
      "transactionHash": "0x04dd41192cbce2f2044e98faadacf225e3b21cb3626e111fd4a1afdaf3726121",
      "transactionIndex": "0x1b",
      "blockHash": "0xd775d8011d0f2ed0dfa203ca31f8f4b3a3c64d6d3973efa870220fe00f0d7b1e",
      "blockNumber": "0x977e364",
      "gasUsed": "0x39dfb",
      "effectiveGasPrice": "0x5f5e100",
      "from": "0xfdc61d52721c5eba3e2fc39190fd9a603256e5a2",
      "to": "0x9a8ca723f5dccb7926d00b71dec55c2fea1f50f7",
      "contractAddress": null,
      "gasUsedForL1": "0x0",
      "l1BlockNumber": "0x80ef01",
      "timeboosted": false
    }
  ],
  "libraries": [],
  "pending": [],
  "returns": {},
  "timestamp": 1748736209,
  "chain": 421614,
  "commit": "be594d3"
}