{
  "transactions": [
    {
      "hash": "0xc8c44675ddbbe21e564445e2f195fa7b8c35dc8439385eba17fdc8ef552acfe8",
      "transactionType": "CALL",
      "contractName": "DeployDetoxHookComplete",
      "contractAddress": "0x9f7cf1d1f558e57ef88a59ac3d47214ef25b6a06",
      "function": "_deployDetoxHookWithSaltExternal(bytes32)",
      "arguments": [
        "0x00000000000000000000000000000000000000000000000000000000000065ae"
      ],
      "transaction": {
        "from": "0xfdc61d52721c5eba3e2fc39190fd9a603256e5a2",
        "to": "0x9f7cf1d1f558e57ef88a59ac3d47214ef25b6a06",
        "gas": "0x6c94",
        "value": "0x0",
        "input": "0xf5f427db00000000000000000000000000000000000000000000000000000000000065ae",
        "nonce": "0x8",
        "chainId": "0x66eee"
      },
      "additionalContracts": [],
      "isFixedGasLimit": false
    },
    {
      "hash": "0x8c17f64ccacfe9e6c6065df5ced1f2c886a8ae6373ccda13e1b04c5f14f861c4",
      "transactionType": "CALL",
      "contractName": null,
      "contractAddress": "0x829310dd1d28612088f0d1523f2a795184634088",
      "function": null,
      "arguments": null,
      "transaction": {
        "from": "0xfdc61d52721c5eba3e2fc39190fd9a603256e5a2",
        "to": "0x829310dd1d28612088f0d1523f2a795184634088",
        "gas": "0x6aa4",
        "value": "0x38d7ea4c68000",
        "input": "0x",
        "nonce": "0x9",
        "chainId": "0x66eee"
      },
      "additionalContracts": [],
      "isFixedGasLimit": false
    },
    {
      "hash": "0x218b4993014898c25cff3b9b195d3f6d6f16f0435b964eace65d02c816268ef8",
      "transactionType": "CALL",
      "contractName": null,
      "contractAddress": "0xfb3e0c6f74eb1a21cc1da29aec80d2dfe6c9a317",
      "function": "initialize((address,address,uint24,int24,address),uint160)",
      "arguments": [
        "(0x0000000000000000000000000000000000000000, 0x75faf114eafb1BDbe2F0316DF893fd58CE46AA4d, 500, 10, 0x829310dd1d28612088F0D1523F2A795184634088)",
        "3961408125713216879677197516800"
      ],
      "transaction": {
        "from": "0xfdc61d52721c5eba3e2fc39190fd9a603256e5a2",
        "to": "0xfb3e0c6f74eb1a21cc1da29aec80d2dfe6c9a317",
        "gas": "0x108e0",
        "value": "0x0",
        "input": "0x6276cbbe000000000000000000000000000000000000000000000000000000000000000000000000000000000000000075faf114eafb1bdbe2f0316df893fd58ce46aa4d00000000000000000000000000000000000000000000000000000000000001f4000000000000000000000000000000000000000000000000000000000000000a000000000000000000000000829310dd1d28612088f0d1523f2a7951846340880000000000000000000000000000000000000032000000000000000000000000",
        "nonce": "0xa",
        "chainId": "0x66eee"
      },
      "additionalContracts": [],
      "isFixedGasLimit": false
    },
    {
      "hash": "0x75cc8c5fef67db1d02c732c02f4e94d55b4ad27054fd98a20d8d563f3bd8662b",
      "transactionType": "CALL",
      "contractName": null,
      "contractAddress": "0xfb3e0c6f74eb1a21cc1da29aec80d2dfe6c9a317",
      "function": "initialize((address,address,uint24,int24,address),uint160)",
      "arguments": [
        "(0x0000000000000000000000000000000000000000, 0x75faf114eafb1BDbe2F0316DF893fd58CE46AA4d, 500, 60, 0x829310dd1d28612088F0D1523F2A795184634088)",
        "4041451884327381504640132478976"
      ],
      "transaction": {
        "from": "0xfdc61d52721c5eba3e2fc39190fd9a603256e5a2",
        "to": "0xfb3e0c6f74eb1a21cc1da29aec80d2dfe6c9a317",
        "gas": "0x10bb8",
        "value": "0x0",
        "input": "0x6276cbbe000000000000000000000000000000000000000000000000000000000000000000000000000000000000000075faf114eafb1bdbe2f0316df893fd58ce46aa4d00000000000000000000000000000000000000000000000000000000000001f4000000000000000000000000000000000000000000000000000000000000003c000000000000000000000000829310dd1d28612088f0d1523f2a795184634088000000000000000000000000000000000000003302a2a5312b4c173f477e7800",
        "nonce": "0xb",
        "chainId": "0x66eee"
      },
      "additionalContracts": [],
      "isFixedGasLimit": false
    },
    {
      "hash": "0xce43f43bfdd7e2f985d1be7b2349c098f8287c6cfdf8888040215d684f615d28",
      "transactionType": "CALL",
      "contractName": null,
      "contractAddress": "0x75faf114eafb1bdbe2f0316df893fd58ce46aa4d",
      "function": "approve(address,uint256)",
      "arguments": [
        "0x9A8ca723F5dcCb7926D00B71deC55c2fEa1F50f7",
        "115792089237316195423570985008687907853269984665640564039457584007913129639935"
      ],
      "transaction": {
        "from": "0xfdc61d52721c5eba3e2fc39190fd9a603256e5a2",
        "to": "0x75faf114eafb1bdbe2f0316df893fd58ce46aa4d",
        "gas": "0x11f5d",
        "value": "0x0",
        "input": "0x095ea7b30000000000000000000000009a8ca723f5dccb7926d00b71dec55c2fea1f50f7ffffffffffffffffffffffffffffffffffffffffffffffffffffffffffffffff",
        "nonce": "0xc",
        "chainId": "0x66eee"
      },
      "additionalContracts": [],
      "isFixedGasLimit": false
    },
    {
      "hash": "0x007a1a351388c1cbc3bf74d4b7a381c519cf0bf60b31ffe9ccfb508cec730221",
      "transactionType": "CALL",
      "contractName": null,
      "contractAddress": "0x9a8ca723f5dccb7926d00b71dec55c2fea1f50f7",
      "function": "modifyLiquidity((address,address,uint24,int24,address),(int24,int24,int256,bytes32),bytes)",
      "arguments": [
        "(0x0000000000000000000000000000000000000000, 0x75faf114eafb1BDbe2F0316DF893fd58CE46AA4d, 500, 10, 0x829310dd1d28612088F0D1523F2A795184634088)",
        "(-600, 600, 1000000, 0x0000000000000000000000000000000000000000000000000000000000000000)",
        "0x"
      ],
      "transaction": {
        "from": "0xfdc61d52721c5eba3e2fc39190fd9a603256e5a2",
        "to": "0x9a8ca723f5dccb7926d00b71dec55c2fea1f50f7",
        "gas": "0x5ac00",
        "value": "0x16bcc41e90000",
        "input": "0x5a6bcfda000000000000000000000000000000000000000000000000000000000000000000000000000000000000000075faf114eafb1bdbe2f0316df893fd58ce46aa4d00000000000000000000000000000000000000000000000000000000000001f4000000000000000000000000000000000000000000000000000000000000000a000000000000000000000000829310dd1d28612088f0d1523f2a795184634088fffffffffffffffffffffffffffffffffffffffffffffffffffffffffffffda8000000000000000000000000000000000000000000000000000000000000025800000000000000000000000000000000000000000000000000000000000f4240000000000000000000000000000000000000000000000000000000000000000000000000000000000000000000000000000000000000000000000000000001400000000000000000000000000000000000000000000000000000000000000000",
        "nonce": "0xd",
        "chainId": "0x66eee"
      },
      "additionalContracts": [],
      "isFixedGasLimit": false
    },
    {
      "hash": "0x180c3cf3c73792fbdf9d748ed44a3916c22f788bf4db560912286ca606bf39f8",
      "transactionType": "CALL",
      "contractName": null,
      "contractAddress": "0x9a8ca723f5dccb7926d00b71dec55c2fea1f50f7",
      "function": "modifyLiquidity((address,address,uint24,int24,address),(int24,int24,int256,bytes32),bytes)",
      "arguments": [
        "(0x0000000000000000000000000000000000000000, 0x75faf114eafb1BDbe2F0316DF893fd58CE46AA4d, 500, 60, 0x829310dd1d28612088F0D1523F2A795184634088)",
        "(-600, 600, 1000000, 0x0000000000000000000000000000000000000000000000000000000000000000)",
        "0x"
      ],
      "transaction": {
        "from": "0xfdc61d52721c5eba3e2fc39190fd9a603256e5a2",
        "to": "0x9a8ca723f5dccb7926d00b71dec55c2fea1f50f7",
        "gas": "0x4ff12",
        "value": "0x15dce3f6009d8",
        "input": "0x5a6bcfda000000000000000000000000000000000000000000000000000000000000000000000000000000000000000075faf114eafb1bdbe2f0316df893fd58ce46aa4d00000000000000000000000000000000000000000000000000000000000001f4000000000000000000000000000000000000000000000000000000000000003c000000000000000000000000829310dd1d28612088f0d1523f2a795184634088fffffffffffffffffffffffffffffffffffffffffffffffffffffffffffffda8000000000000000000000000000000000000000000000000000000000000025800000000000000000000000000000000000000000000000000000000000f4240000000000000000000000000000000000000000000000000000000000000000000000000000000000000000000000000000000000000000000000000000001400000000000000000000000000000000000000000000000000000000000000000",
        "nonce": "0xe",
        "chainId": "0x66eee"
      },
      "additionalContracts": [],
      "isFixedGasLimit": false
    }
  ],
  "receipts": [
    {
      "status": "0x1",
      "cumulativeGasUsed": "0x6b303",
      "logs": [],
      "logsBloom": "0x00000000000000000000000000000000000000000000000000000000000000000000000000000000000000000000000000000000000000000000000000000000000000000000000000000000000000000000000000000000000000000000000000000000000000000000000000000000000000000000000000000000000000000000000000000000000000000000000000000000000000000000000000000000000000000000000000000000000000000000000000000000000000000000000000000000000000000000000000000000000000000000000000000000000000000000000000000000000000000000000000000000000000000000000000000000",
      "type": "0x2",
      "transactionHash": "0xc8c44675ddbbe21e564445e2f195fa7b8c35dc8439385eba17fdc8ef552acfe8",
      "transactionIndex": "0xb",
      "blockHash": "0xb24fa0eef772ecbc2b4c8a9cce80085560d90ab0b3a4d8f30c0b5c0e839b42d9",
      "blockNumber": "0x9779c95",
      "gasUsed": "0x52e0",
      "effectiveGasPrice": "0x5f5e100",
      "from": "0xfdc61d52721c5eba3e2fc39190fd9a603256e5a2",
      "to": "0x9f7cf1d1f558e57ef88a59ac3d47214ef25b6a06",
      "contractAddress": null,
      "gasUsedForL1": "0x0",
      "l1BlockNumber": "0x80ed7d",
      "timeboosted": false
    },
    {
      "status": "0x1",
      "cumulativeGasUsed": "0x9a89a",
      "logs": [],
      "logsBloom": "0x00000000000000000000000000000000000000000000000000000000000000000000000000000000000000000000000000000000000000000000000000000000000000000000000000000000000000000000000000000000000000000000000000000000000000000000000000000000000000000000000000000000000000000000000000000000000000000000000000000000000000000000000000000000000000000000000000000000000000000000000000000000000000000000000000000000000000000000000000000000000000000000000000000000000000000000000000000000000000000000000000000000000000000000000000000000",
      "type": "0x2",
      "transactionHash": "0x8c17f64ccacfe9e6c6065df5ced1f2c886a8ae6373ccda13e1b04c5f14f861c4",
      "transactionIndex": "0xd",
      "blockHash": "0xa564860935b303041ab1d9833838843b51c915264ff6703857ab04d0f4a1b4a5",
      "blockNumber": "0x9779cb4",
      "gasUsed": "0x5208",
      "effectiveGasPrice": "0x5f5e100",
      "from": "0xfdc61d52721c5eba3e2fc39190fd9a603256e5a2",
      "to": "0x829310dd1d28612088f0d1523f2a795184634088",
      "contractAddress": null,
      "gasUsedForL1": "0x0",
      "l1BlockNumber": "0x80ed7d",
      "timeboosted": false
    },
    {
      "status": "0x1",
      "cumulativeGasUsed": "0x86abf",
      "logs": [
        {
          "address": "0xfb3e0c6f74eb1a21cc1da29aec80d2dfe6c9a317",
          "topics": [
            "0xdd466e674ea557f56295e2d0218a125ea4b4f0f6f3307b95f85e6110838d6438",
            "0x2a6de924c3e9c970672c0ed67c077c14746e715a65bb8f5d7754e792698b4742",
            "0x0000000000000000000000000000000000000000000000000000000000000000",
            "0x00000000000000000000000075faf114eafb1bdbe2f0316df893fd58ce46aa4d"
          ],
          "data": "0x00000000000000000000000000000000000000000000000000000000000001f4000000000000000000000000000000000000000000000000000000000000000a000000000000000000000000829310dd1d28612088f0d1523f2a795184634088000000000000000000000000000000000000003200000000000000000000000000000000000000000000000000000000000000000000000000000000000131a4",
          "blockHash": "0x86df91743570d583c7948d362768750d5d4567feaadc1a27707ffdb2ec75eb04",
          "blockNumber": "0x9779cd3",
          "transactionHash": "0x218b4993014898c25cff3b9b195d3f6d6f16f0435b964eace65d02c816268ef8",
          "transactionIndex": "0x9",
          "logIndex": "0x7",
          "removed": false
        }
      ],
      "logsBloom": "0x00000000000000000040000000000000000000000000000000000000000000000000000000000000000000000000000000008000000000000000000000000040000000000000000000000000000000000000000000000000000000000000000000000000020400000000000000000800020000000000002000000000000000000000000000000008000000000000000000000001000000000000000002200000000000000000000000000000000000000000000000000000000000000000000000000000000000000000000000000000004000000000000000000000000020000000000000000000000000000000000000000000000000000000000000000004",
      "type": "0x2",
      "transactionHash": "0x218b4993014898c25cff3b9b195d3f6d6f16f0435b964eace65d02c816268ef8",
      "transactionIndex": "0x9",
      "blockHash": "0x86df91743570d583c7948d362768750d5d4567feaadc1a27707ffdb2ec75eb04",
      "blockNumber": "0x9779cd3",
      "gasUsed": "0xca37",
      "effectiveGasPrice": "0x5f5e100",
      "from": "0xfdc61d52721c5eba3e2fc39190fd9a603256e5a2",
      "to": "0xfb3e0c6f74eb1a21cc1da29aec80d2dfe6c9a317",
      "contractAddress": null,
      "gasUsedForL1": "0x0",
      "l1BlockNumber": "0x80ed7f",
      "timeboosted": false
    },
    {
      "status": "0x1",
      "cumulativeGasUsed": "0xa4408",
      "logs": [
        {
          "address": "0xfb3e0c6f74eb1a21cc1da29aec80d2dfe6c9a317",
          "topics": [
            "0xdd466e674ea557f56295e2d0218a125ea4b4f0f6f3307b95f85e6110838d6438",
            "0x74fff2bcbca03df8b1015fb71ed18955353d48c7213447ead96c7570bbeadb65",
            "0x0000000000000000000000000000000000000000000000000000000000000000",
            "0x00000000000000000000000075faf114eafb1bdbe2f0316df893fd58ce46aa4d"
          ],
          "data": "0x00000000000000000000000000000000000000000000000000000000000001f4000000000000000000000000000000000000000000000000000000000000003c000000000000000000000000829310dd1d28612088f0d1523f2a795184634088000000000000000000000000000000000000003302a2a5312b4c173f477e78000000000000000000000000000000000000000000000000000000000000013334",
          "blockHash": "0xc2f9b705f573da08d697f92085c0f56c4bb8d53e589d8620b56f060ce410d16b",
          "blockNumber": "0x9779cf2",
          "transactionHash": "0x75cc8c5fef67db1d02c732c02f4e94d55b4ad27054fd98a20d8d563f3bd8662b",
          "transactionIndex": "0xa",
          "logIndex": "0xc",
          "removed": false
        }
      ],
      "logsBloom": "0x00000000000000000000000000000000000000000000000000000000000000000000000000000000000000000000000000008000000000000000000000000040000000000000000000000000000000000000000000000000000000000000000000000000020400000000000000000800020040000020002000000000000000000000000000000008000000000000000000000001000000000000000000200000000000000000000000000000000000000000020000000000000000000000000000000000000000000000000000000000000000000000000000000000000020000000000000000000000000000000000000000000000000000000000000000004",
      "type": "0x2",
      "transactionHash": "0x75cc8c5fef67db1d02c732c02f4e94d55b4ad27054fd98a20d8d563f3bd8662b",
      "transactionIndex": "0xa",
      "blockHash": "0xc2f9b705f573da08d697f92085c0f56c4bb8d53e589d8620b56f060ce410d16b",
      "blockNumber": "0x9779cf2",
      "gasUsed": "0xcadb",
      "effectiveGasPrice": "0x5f5e100",
      "from": "0xfdc61d52721c5eba3e2fc39190fd9a603256e5a2",
      "to": "0xfb3e0c6f74eb1a21cc1da29aec80d2dfe6c9a317",
      "contractAddress": null,
      "gasUsedForL1": "0x0",
      "l1BlockNumber": "0x80ed7f",
      "timeboosted": false
    },
    {
      "status": "0x1",
      "cumulativeGasUsed": "0xbf40f",
      "logs": [
        {
          "address": "0x75faf114eafb1bdbe2f0316df893fd58ce46aa4d",
          "topics": [
            "0x8c5be1e5ebec7d5bd14f71427d1e84f3dd0314c0f7b2291e5b200ac8c7c3b925",
            "0x000000000000000000000000fdc61d52721c5eba3e2fc39190fd9a603256e5a2",
            "0x0000000000000000000000009a8ca723f5dccb7926d00b71dec55c2fea1f50f7"
          ],
          "data": "0xffffffffffffffffffffffffffffffffffffffffffffffffffffffffffffffff",
          "blockHash": "0x5294f43054716b83b351981f73768756a704def74f9a1838f3c90f31e9a190e2",
          "blockNumber": "0x9779d0e",
          "transactionHash": "0xce43f43bfdd7e2f985d1be7b2349c098f8287c6cfdf8888040215d684f615d28",
          "transactionIndex": "0xd",
          "logIndex": "0x3",
          "removed": false
        }
      ],
      "logsBloom": "0x0000000040000000000000000000040000000000000000000000000000000000000000000000000000000000000000000000000000000000000000000020000080000000000000000000000000000000000000000000000000000000000000000000000000000000000000000000000000000000000000000000000000000000001000000000000000000000000000000000000000000000000000000000000002000000000000000000000800000000000000000000000000000000000000000000000000000000000000000000000000000000000000000000000000000000001000000000000000000000010000000000000000000000010000000000000c",
      "type": "0x2",
      "transactionHash": "0xce43f43bfdd7e2f985d1be7b2349c098f8287c6cfdf8888040215d684f615d28",
      "transactionIndex": "0xd",
      "blockHash": "0x5294f43054716b83b351981f73768756a704def74f9a1838f3c90f31e9a190e2",
      "blockNumber": "0x9779d0e",
      "gasUsed": "0xd9e9",
      "effectiveGasPrice": "0x5f5e100",
      "from": "0xfdc61d52721c5eba3e2fc39190fd9a603256e5a2",
      "to": "0x75faf114eafb1bdbe2f0316df893fd58ce46aa4d",
      "contractAddress": null,
      "gasUsedForL1": "0x0",
      "l1BlockNumber": "0x80ed80",
      "timeboosted": false
    },
    {
      "status": "0x1",
      "cumulativeGasUsed": "0x154943",
      "logs": [
        {
          "address": "0xfb3e0c6f74eb1a21cc1da29aec80d2dfe6c9a317",
          "topics": [
            "0xf208f4912782fd25c7f114ca3723a2d5dd6f3bcc3ac8db5af63baa85f711d5ec",
            "0x2a6de924c3e9c970672c0ed67c077c14746e715a65bb8f5d7754e792698b4742",
            "0x0000000000000000000000009a8ca723f5dccb7926d00b71dec55c2fea1f50f7"
          ],
          "data": "0xfffffffffffffffffffffffffffffffffffffffffffffffffffffffffffffda8000000000000000000000000000000000000000000000000000000000000025800000000000000000000000000000000000000000000000000000000000f42400000000000000000000000000000000000000000000000000000000000000000",
          "blockHash": "0x2899e74ec0a5b48886a90b826f2d0ba9346dc0292cffd05a77c262a2df4bcca0",
          "blockNumber": "0x9779d2d",
          "transactionHash": "0x007a1a351388c1cbc3bf74d4b7a381c519cf0bf60b31ffe9ccfb508cec730221",
          "transactionIndex": "0xf",
          "logIndex": "0x16",
          "removed": false
        },
        {
          "address": "0x75faf114eafb1bdbe2f0316df893fd58ce46aa4d",
          "topics": [
            "0xddf252ad1be2c89b69c2b068fc378daa952ba7f163c4a11628f55a4df523b3ef",
            "0x000000000000000000000000fdc61d52721c5eba3e2fc39190fd9a603256e5a2",
            "0x000000000000000000000000fb3e0c6f74eb1a21cc1da29aec80d2dfe6c9a317"
          ],
          "data": "0x000000000000000000000000000000000000000000000000000000000000ea66",
          "blockHash": "0x2899e74ec0a5b48886a90b826f2d0ba9346dc0292cffd05a77c262a2df4bcca0",
          "blockNumber": "0x9779d2d",
          "transactionHash": "0x007a1a351388c1cbc3bf74d4b7a381c519cf0bf60b31ffe9ccfb508cec730221",
          "transactionIndex": "0xf",
          "logIndex": "0x17",
          "removed": false
        }
      ],
      "logsBloom": "0x0000004040000000004000000000040800000000002000000000000000000000000000000000000000000000000000000000000000000000000000000000004080000000000000000000000800000000000000000000000000000000000000000000000000040000000000000000000000000000000000000000001000000000001000000100000000000000000000000000000000000000000000000200000000000400000000000000000800000000000000000000000000000000000000000000000200000000000000000000000000400000000000000000000000000000000000000000000000000000010000000400000000000000010000000000000c",
      "type": "0x2",
      "transactionHash": "0x007a1a351388c1cbc3bf74d4b7a381c519cf0bf60b31ffe9ccfb508cec730221",
      "transactionIndex": "0xf",
      "blockHash": "0x2899e74ec0a5b48886a90b826f2d0ba9346dc0292cffd05a77c262a2df4bcca0",
      "blockNumber": "0x9779d2d",
      "gasUsed": "0x3e0d3",
      "effectiveGasPrice": "0x5f5e100",
      "from": "0xfdc61d52721c5eba3e2fc39190fd9a603256e5a2",
      "to": "0x9a8ca723f5dccb7926d00b71dec55c2fea1f50f7",
      "contractAddress": null,
      "gasUsedForL1": "0x0",
      "l1BlockNumber": "0x80ed80",
      "timeboosted": false
    },
    {
      "status": "0x1",
      "cumulativeGasUsed": "0x1004af",
      "logs": [
        {
          "address": "0xfb3e0c6f74eb1a21cc1da29aec80d2dfe6c9a317",
          "topics": [
            "0xf208f4912782fd25c7f114ca3723a2d5dd6f3bcc3ac8db5af63baa85f711d5ec",
            "0x74fff2bcbca03df8b1015fb71ed18955353d48c7213447ead96c7570bbeadb65",
            "0x0000000000000000000000009a8ca723f5dccb7926d00b71dec55c2fea1f50f7"
          ],
          "data": "0xfffffffffffffffffffffffffffffffffffffffffffffffffffffffffffffda8000000000000000000000000000000000000000000000000000000000000025800000000000000000000000000000000000000000000000000000000000f42400000000000000000000000000000000000000000000000000000000000000000",
          "blockHash": "0x92f3a2e95ca74b11baa6d43aad477d9cf1e354547166bfc827e98597605b2f5d",
          "blockNumber": "0x9779d4c",
          "transactionHash": "0x180c3cf3c73792fbdf9d748ed44a3916c22f788bf4db560912286ca606bf39f8",
          "transactionIndex": "0x8",
          "logIndex": "0x1d",
          "removed": false
        },
        {
          "address": "0x75faf114eafb1bdbe2f0316df893fd58ce46aa4d",
          "topics": [
            "0xddf252ad1be2c89b69c2b068fc378daa952ba7f163c4a11628f55a4df523b3ef",
            "0x000000000000000000000000fdc61d52721c5eba3e2fc39190fd9a603256e5a2",
            "0x000000000000000000000000fb3e0c6f74eb1a21cc1da29aec80d2dfe6c9a317"
          ],
          "data": "0x000000000000000000000000000000000000000000000000000000000000ea66",
          "blockHash": "0x92f3a2e95ca74b11baa6d43aad477d9cf1e354547166bfc827e98597605b2f5d",
          "blockNumber": "0x9779d4c",
          "transactionHash": "0x180c3cf3c73792fbdf9d748ed44a3916c22f788bf4db560912286ca606bf39f8",
          "transactionIndex": "0x8",
          "logIndex": "0x1e",
          "removed": false
        }
      ],
      "logsBloom": "0x0000004040000000000000000000040800000000002000000000000000000000000000000000000000000000000000000000000000000000000000000000004080000000000000000000000800000000000000000000000000000000000000000000000000040000000000000000000000004000002000000000001000000000001000000100000000000000000000000000000000000000000000000000000000000400000000000000000800000000000002000000000000000000000000000000000200000000000000000000000000000000000000000000000000000000000000000000000000000000010000000400000000000000010000000000000c",
      "type": "0x2",
      "transactionHash": "0x180c3cf3c73792fbdf9d748ed44a3916c22f788bf4db560912286ca606bf39f8",
      "transactionIndex": "0x8",
      "blockHash": "0x92f3a2e95ca74b11baa6d43aad477d9cf1e354547166bfc827e98597605b2f5d",
      "blockNumber": "0x9779d4c",
      "gasUsed": "0x39e07",
      "effectiveGasPrice": "0x5f5e100",
      "from": "0xfdc61d52721c5eba3e2fc39190fd9a603256e5a2",
      "to": "0x9a8ca723f5dccb7926d00b71dec55c2fea1f50f7",
      "contractAddress": null,
      "gasUsedForL1": "0x0",
      "l1BlockNumber": "0x80ed81",
      "timeboosted": false
    }
  ],
  "libraries": [],
  "pending": [],
  "returns": {},
  "timestamp": 1748731606,
  "chain": 421614,
  "commit": "2786637"
}